{
  "_format": "hh-sol-artifact-1",
  "contractName": "MainToken",
  "sourceName": "contracts/MainToken.sol",
  "abi": [
    {
      "inputs": [
        {
          "internalType": "string",
          "name": "name",
          "type": "string"
        },
        {
          "internalType": "string",
          "name": "symbol",
          "type": "string"
        }
      ],
      "stateMutability": "nonpayable",
      "type": "constructor"
    },
    {
      "inputs": [
        {
          "internalType": "address",
          "name": "token",
          "type": "address"
        },
        {
          "internalType": "address",
          "name": "from",
          "type": "address"
        },
        {
          "internalType": "address",
          "name": "to",
          "type": "address"
        },
        {
          "internalType": "uint256",
          "name": "amount",
          "type": "uint256"
        }
      ],
      "name": "BadReturnValueFromERC20OnTransfer",
      "type": "error"
    },
    {
      "inputs": [
        {
          "internalType": "address",
          "name": "token",
          "type": "address"
        },
        {
          "internalType": "address",
          "name": "from",
          "type": "address"
        },
        {
          "internalType": "address",
          "name": "to",
          "type": "address"
        },
        {
          "internalType": "uint256[]",
          "name": "identifiers",
          "type": "uint256[]"
        },
        {
          "internalType": "uint256[]",
          "name": "amounts",
          "type": "uint256[]"
        }
      ],
      "name": "ERC1155BatchTransferGenericFailure",
      "type": "error"
    },
    {
      "inputs": [],
      "name": "Invalid1155BatchTransferEncoding",
      "type": "error"
    },
    {
      "inputs": [],
      "name": "InvalidERC721TransferAmount",
      "type": "error"
    },
    {
      "inputs": [],
      "name": "MissingItemAmount",
      "type": "error"
    },
    {
      "inputs": [
        {
          "internalType": "address",
          "name": "account",
          "type": "address"
        }
      ],
      "name": "NoContract",
      "type": "error"
    },
    {
      "inputs": [
        {
          "internalType": "address",
          "name": "token",
          "type": "address"
        },
        {
          "internalType": "address",
          "name": "from",
          "type": "address"
        },
        {
          "internalType": "address",
          "name": "to",
          "type": "address"
        },
        {
          "internalType": "uint256",
          "name": "identifier",
          "type": "uint256"
        },
        {
          "internalType": "uint256",
          "name": "amount",
          "type": "uint256"
        }
      ],
      "name": "TokenTransferGenericFailure",
      "type": "error"
    },
    {
      "inputs": [],
      "name": "UnusedItemParameters",
      "type": "error"
    },
    {
      "inputs": [],
      "name": "WithdrawCouldNotBeProcessed",
      "type": "error"
    },
    {
      "anonymous": false,
      "inputs": [
        {
          "indexed": true,
          "internalType": "address",
          "name": "owner",
          "type": "address"
        },
        {
          "indexed": true,
          "internalType": "address",
          "name": "spender",
          "type": "address"
        },
        {
          "indexed": false,
          "internalType": "uint256",
          "name": "value",
          "type": "uint256"
        }
      ],
      "name": "Approval",
      "type": "event"
    },
    {
      "anonymous": false,
      "inputs": [
        {
          "indexed": true,
          "internalType": "bytes32",
          "name": "role",
          "type": "bytes32"
        },
        {
          "indexed": true,
          "internalType": "bytes32",
          "name": "previousAdminRole",
          "type": "bytes32"
        },
        {
          "indexed": true,
          "internalType": "bytes32",
          "name": "newAdminRole",
          "type": "bytes32"
        }
      ],
      "name": "RoleAdminChanged",
      "type": "event"
    },
    {
      "anonymous": false,
      "inputs": [
        {
          "indexed": true,
          "internalType": "bytes32",
          "name": "role",
          "type": "bytes32"
        },
        {
          "indexed": true,
          "internalType": "address",
          "name": "account",
          "type": "address"
        },
        {
          "indexed": true,
          "internalType": "address",
          "name": "sender",
          "type": "address"
        }
      ],
      "name": "RoleGranted",
      "type": "event"
    },
    {
      "anonymous": false,
      "inputs": [
        {
          "indexed": true,
          "internalType": "bytes32",
          "name": "role",
          "type": "bytes32"
        },
        {
          "indexed": true,
          "internalType": "address",
          "name": "account",
          "type": "address"
        },
        {
          "indexed": true,
          "internalType": "address",
          "name": "sender",
          "type": "address"
        }
      ],
      "name": "RoleRevoked",
      "type": "event"
    },
    {
      "anonymous": false,
      "inputs": [
        {
          "indexed": true,
          "internalType": "address",
          "name": "from",
          "type": "address"
        },
        {
          "indexed": true,
          "internalType": "address",
          "name": "to",
          "type": "address"
        },
        {
          "indexed": false,
          "internalType": "uint256",
          "name": "value",
          "type": "uint256"
        }
      ],
      "name": "Transfer",
      "type": "event"
    },
    {
      "inputs": [],
      "name": "DEFAULT_ADMIN_ROLE",
      "outputs": [
        {
          "internalType": "bytes32",
          "name": "",
          "type": "bytes32"
        }
      ],
      "stateMutability": "view",
      "type": "function"
    },
    {
      "inputs": [
        {
          "internalType": "address",
          "name": "token_",
          "type": "address"
        },
        {
          "internalType": "uint256",
          "name": "tokenId_",
          "type": "uint256"
        },
        {
          "internalType": "uint256",
          "name": "amount_",
          "type": "uint256"
        }
      ],
      "name": "ERC1155Transfer",
      "outputs": [],
      "stateMutability": "nonpayable",
      "type": "function"
    },
    {
      "inputs": [
        {
          "internalType": "address",
          "name": "token_",
          "type": "address"
        },
        {
          "internalType": "uint256",
          "name": "amount_",
          "type": "uint256"
        }
      ],
      "name": "ERC20Transfer",
      "outputs": [],
      "stateMutability": "nonpayable",
      "type": "function"
    },
    {
      "inputs": [
        {
          "internalType": "address",
          "name": "token_",
          "type": "address"
        },
        {
          "internalType": "uint256",
          "name": "tokenId_",
          "type": "uint256"
        }
      ],
      "name": "ERC721Transfer",
      "outputs": [],
      "stateMutability": "nonpayable",
      "type": "function"
    },
    {
      "inputs": [],
      "name": "MINTER_ROLE",
      "outputs": [
        {
          "internalType": "bytes32",
          "name": "",
          "type": "bytes32"
        }
      ],
      "stateMutability": "view",
      "type": "function"
    },
    {
      "inputs": [
        {
          "internalType": "address",
          "name": "owner",
          "type": "address"
        },
        {
          "internalType": "address",
          "name": "spender",
          "type": "address"
        }
      ],
      "name": "allowance",
      "outputs": [
        {
          "internalType": "uint256",
          "name": "",
          "type": "uint256"
        }
      ],
      "stateMutability": "view",
      "type": "function"
    },
    {
      "inputs": [
        {
          "internalType": "address",
          "name": "spender",
          "type": "address"
        },
        {
          "internalType": "uint256",
          "name": "amount",
          "type": "uint256"
        }
      ],
      "name": "approve",
      "outputs": [
        {
          "internalType": "bool",
          "name": "",
          "type": "bool"
        }
      ],
      "stateMutability": "nonpayable",
      "type": "function"
    },
    {
      "inputs": [
        {
          "internalType": "address",
          "name": "account",
          "type": "address"
        }
      ],
      "name": "balanceOf",
      "outputs": [
        {
          "internalType": "uint256",
          "name": "",
          "type": "uint256"
        }
      ],
      "stateMutability": "view",
      "type": "function"
    },
    {
      "inputs": [],
      "name": "decimals",
      "outputs": [
        {
          "internalType": "uint8",
          "name": "",
          "type": "uint8"
        }
      ],
      "stateMutability": "view",
      "type": "function"
    },
    {
      "inputs": [
        {
          "internalType": "address",
          "name": "spender",
          "type": "address"
        },
        {
          "internalType": "uint256",
          "name": "subtractedValue",
          "type": "uint256"
        }
      ],
      "name": "decreaseAllowance",
      "outputs": [
        {
          "internalType": "bool",
          "name": "",
          "type": "bool"
        }
      ],
      "stateMutability": "nonpayable",
      "type": "function"
    },
    {
      "inputs": [
        {
          "internalType": "bytes32",
          "name": "role",
          "type": "bytes32"
        }
      ],
      "name": "getRoleAdmin",
      "outputs": [
        {
          "internalType": "bytes32",
          "name": "",
          "type": "bytes32"
        }
      ],
      "stateMutability": "view",
      "type": "function"
    },
    {
      "inputs": [
        {
          "internalType": "bytes32",
          "name": "role",
          "type": "bytes32"
        },
        {
          "internalType": "uint256",
          "name": "index",
          "type": "uint256"
        }
      ],
      "name": "getRoleMember",
      "outputs": [
        {
          "internalType": "address",
          "name": "",
          "type": "address"
        }
      ],
      "stateMutability": "view",
      "type": "function"
    },
    {
      "inputs": [
        {
          "internalType": "bytes32",
          "name": "role",
          "type": "bytes32"
        }
      ],
      "name": "getRoleMemberCount",
      "outputs": [
        {
          "internalType": "uint256",
          "name": "",
          "type": "uint256"
        }
      ],
      "stateMutability": "view",
      "type": "function"
    },
    {
      "inputs": [
        {
          "internalType": "address",
          "name": "account",
          "type": "address"
        }
      ],
      "name": "grantMint",
      "outputs": [],
      "stateMutability": "nonpayable",
      "type": "function"
    },
    {
      "inputs": [
        {
          "internalType": "bytes32",
          "name": "role",
          "type": "bytes32"
        },
        {
          "internalType": "address",
          "name": "account",
          "type": "address"
        }
      ],
      "name": "grantRole",
      "outputs": [],
      "stateMutability": "nonpayable",
      "type": "function"
    },
    {
      "inputs": [
        {
          "internalType": "bytes32",
          "name": "role",
          "type": "bytes32"
        },
        {
          "internalType": "address",
          "name": "account",
          "type": "address"
        }
      ],
      "name": "hasRole",
      "outputs": [
        {
          "internalType": "bool",
          "name": "",
          "type": "bool"
        }
      ],
      "stateMutability": "view",
      "type": "function"
    },
    {
      "inputs": [
        {
          "internalType": "address",
          "name": "spender",
          "type": "address"
        },
        {
          "internalType": "uint256",
          "name": "addedValue",
          "type": "uint256"
        }
      ],
      "name": "increaseAllowance",
      "outputs": [
        {
          "internalType": "bool",
          "name": "",
          "type": "bool"
        }
      ],
      "stateMutability": "nonpayable",
      "type": "function"
    },
    {
      "inputs": [
        {
          "internalType": "address",
          "name": "account",
          "type": "address"
        },
        {
          "internalType": "uint256",
          "name": "amount",
          "type": "uint256"
        }
      ],
      "name": "mint",
      "outputs": [],
      "stateMutability": "nonpayable",
      "type": "function"
    },
    {
      "inputs": [],
      "name": "name",
      "outputs": [
        {
          "internalType": "string",
          "name": "",
          "type": "string"
        }
      ],
      "stateMutability": "view",
      "type": "function"
    },
    {
      "inputs": [
        {
          "internalType": "bytes32",
          "name": "role",
          "type": "bytes32"
        },
        {
          "internalType": "address",
          "name": "account",
          "type": "address"
        }
      ],
      "name": "renounceRole",
      "outputs": [],
      "stateMutability": "nonpayable",
      "type": "function"
    },
    {
      "inputs": [
        {
          "internalType": "address",
          "name": "account",
          "type": "address"
        }
      ],
      "name": "revokeMint",
      "outputs": [],
      "stateMutability": "nonpayable",
      "type": "function"
    },
    {
      "inputs": [
        {
          "internalType": "bytes32",
          "name": "role",
          "type": "bytes32"
        },
        {
          "internalType": "address",
          "name": "account",
          "type": "address"
        }
      ],
      "name": "revokeRole",
      "outputs": [],
      "stateMutability": "nonpayable",
      "type": "function"
    },
    {
      "inputs": [
        {
          "internalType": "bytes4",
          "name": "interfaceId",
          "type": "bytes4"
        }
      ],
      "name": "supportsInterface",
      "outputs": [
        {
          "internalType": "bool",
          "name": "",
          "type": "bool"
        }
      ],
      "stateMutability": "view",
      "type": "function"
    },
    {
      "inputs": [],
      "name": "symbol",
      "outputs": [
        {
          "internalType": "string",
          "name": "",
          "type": "string"
        }
      ],
      "stateMutability": "view",
      "type": "function"
    },
    {
      "inputs": [],
      "name": "totalSupply",
      "outputs": [
        {
          "internalType": "uint256",
          "name": "",
          "type": "uint256"
        }
      ],
      "stateMutability": "view",
      "type": "function"
    },
    {
      "inputs": [
        {
          "internalType": "address",
          "name": "to",
          "type": "address"
        },
        {
          "internalType": "uint256",
          "name": "amount",
          "type": "uint256"
        }
      ],
      "name": "transfer",
      "outputs": [
        {
          "internalType": "bool",
          "name": "",
          "type": "bool"
        }
      ],
      "stateMutability": "nonpayable",
      "type": "function"
    },
    {
      "inputs": [
        {
          "internalType": "address",
          "name": "from",
          "type": "address"
        },
        {
          "internalType": "address",
          "name": "to",
          "type": "address"
        },
        {
          "internalType": "uint256",
          "name": "amount",
          "type": "uint256"
        }
      ],
      "name": "transferFrom",
      "outputs": [
        {
          "internalType": "bool",
          "name": "",
          "type": "bool"
        }
      ],
      "stateMutability": "nonpayable",
      "type": "function"
    },
    {
      "inputs": [],
      "name": "withdraw",
      "outputs": [],
      "stateMutability": "nonpayable",
      "type": "function"
    }
  ],
  "bytecode": "0x60806040523480156200001157600080fd5b5060405162001c6738038062001c678339810160408190526200003491620002d9565b81816003620000448382620003d1565b506004620000538282620003d1565b506200006591506000905033620000ab565b620000917f9f2df0fed2c77648de5860a4cc508cd0818c85b8b8a1ab4ceeef8d981c8956a633620000ab565b5050600780546001600160a01b031916331790556200049d565b620000b78282620000bb565b5050565b620000d28282620000fe60201b6200084f1760201c565b6000828152600660209081526040909120620000f9918390620008d5620001a2821b17901c565b505050565b60008281526005602090815260408083206001600160a01b038516845290915290205460ff16620000b75760008281526005602090815260408083206001600160a01b03851684529091529020805460ff191660011790556200015e3390565b6001600160a01b0316816001600160a01b0316837f2f8788117e7eff1d82e926ec794901d17c78024a50270940304540a733656f0d60405160405180910390a45050565b6000620001b9836001600160a01b038416620001c2565b90505b92915050565b60008181526001830160205260408120546200020b57508154600181810184556000848152602080822090930184905584548482528286019093526040902091909155620001bc565b506000620001bc565b634e487b7160e01b600052604160045260246000fd5b600082601f8301126200023c57600080fd5b81516001600160401b038082111562000259576200025962000214565b604051601f8301601f19908116603f0116810190828211818310171562000284576200028462000214565b81604052838152602092508683858801011115620002a157600080fd5b600091505b83821015620002c55785820183015181830184015290820190620002a6565b600093810190920192909252949350505050565b60008060408385031215620002ed57600080fd5b82516001600160401b03808211156200030557600080fd5b62000313868387016200022a565b935060208501519150808211156200032a57600080fd5b5062000339858286016200022a565b9150509250929050565b600181811c908216806200035857607f821691505b6020821081036200037957634e487b7160e01b600052602260045260246000fd5b50919050565b601f821115620000f957600081815260208120601f850160051c81016020861015620003a85750805b601f850160051c820191505b81811015620003c957828155600101620003b4565b505050505050565b81516001600160401b03811115620003ed57620003ed62000214565b6200040581620003fe845462000343565b846200037f565b602080601f8311600181146200043d5760008415620004245750858301515b600019600386901b1c1916600185901b178555620003c9565b600085815260208120601f198616915b828110156200046e578886015182559484019460019091019084016200044d565b50858210156200048d5787850151600019600388901b60f8161c191681555b5050505050600190811b01905550565b6117ba80620004ad6000396000f3fe608060405234801561001057600080fd5b50600436106101c45760003560e01c806370a08231116100f9578063a457c2d711610097578063d539139311610071578063d5391393146103c2578063d547741f146103d7578063dd62ed3e146103ea578063f1d86bf3146103fd57600080fd5b8063a457c2d714610389578063a9059cbb1461039c578063ca15c873146103af57600080fd5b806391d14854116100d357806391d148541461035357806395d89b4114610366578063a06d8fc71461036e578063a217fddf1461038157600080fd5b806370a08231146102ec5780638a6db172146103155780639010d07c1461032857600080fd5b80632f2ff15d116101665780633935bac6116101405780633935bac6146102ab57806339509351146102be5780633ccfd60b146102d157806340c10f19146102d957600080fd5b80632f2ff15d14610276578063313ce5671461028957806336568abe1461029857600080fd5b806318160ddd116101a257806318160ddd14610219578063211b87f81461022b57806323b872dd14610240578063248a9ca31461025357600080fd5b806301ffc9a7146101c957806306fdde03146101f1578063095ea7b314610206575b600080fd5b6101dc6101d7366004611427565b610410565b60405190151581526020015b60405180910390f35b6101f961043b565b6040516101e89190611475565b6101dc6102143660046114c4565b6104cd565b6002545b6040519081526020016101e8565b61023e6102393660046114c4565b6104e5565b005b6101dc61024e3660046114ee565b610503565b61021d61026136600461152a565b60009081526005602052604090206001015490565b61023e610284366004611543565b610527565b604051601281526020016101e8565b61023e6102a6366004611543565b610551565b61023e6102b936600461156f565b6105d0565b6101dc6102cc3660046114c4565b6105f3565b61023e610615565b61023e6102e73660046114c4565b61068c565b61021d6102fa36600461156f565b6001600160a01b031660009081526020819052604090205490565b61023e6103233660046114c4565b6106ae565b61033b61033636600461158a565b6106c8565b6040516001600160a01b0390911681526020016101e8565b6101dc610361366004611543565b6106e7565b6101f9610712565b61023e61037c36600461156f565b610721565b61021d600081565b6101dc6103973660046114c4565b610744565b6101dc6103aa3660046114c4565b6107bf565b61021d6103bd36600461152a565b6107cd565b61021d60008051602061176583398151915281565b61023e6103e5366004611543565b6107e4565b61021d6103f83660046115ac565b610809565b61023e61040b3660046115d6565b610834565b60006001600160e01b03198216635a05180f60e01b14806104355750610435826108ea565b92915050565b60606003805461044a90611609565b80601f016020809104026020016040519081016040528092919081815260200182805461047690611609565b80156104c35780601f10610498576101008083540402835291602001916104c3565b820191906000526020600020905b8154815290600101906020018083116104a657829003601f168201915b5050505050905090565b6000336104db81858561091f565b5060019392505050565b6007546104ff90839030906001600160a01b031684610a43565b5050565b600033610511858285610b07565b61051c858585610b81565b506001949350505050565b60008281526005602052604090206001015461054281610d25565b61054c8383610d2f565b505050565b6001600160a01b03811633146105c65760405162461bcd60e51b815260206004820152602f60248201527f416363657373436f6e74726f6c3a2063616e206f6e6c792072656e6f756e636560448201526e103937b632b9903337b91039b2b63360891b60648201526084015b60405180910390fd5b6104ff8282610d51565b60006105db81610d25565b6104ff60008051602061176583398151915283610d51565b6000336104db8185856106068383610809565b6106109190611659565b61091f565b6007546040516000916001600160a01b03169047908381818185875af1925050503d8060008114610662576040519150601f19603f3d011682016040523d82523d6000602084013e610667565b606091505b50509050806106895760405163c51e206760e01b815260040160405180910390fd5b50565b6000805160206117658339815191526106a481610d25565b61054c8383610d73565b6007546104ff90839030906001600160a01b031684610e32565b60008281526006602052604081206106e09083610f3b565b9392505050565b60009182526005602090815260408084206001600160a01b0393909316845291905290205460ff1690565b60606004805461044a90611609565b600061072c81610d25565b6104ff60008051602061176583398151915283610d2f565b600033816107528286610809565b9050838110156107b25760405162461bcd60e51b815260206004820152602560248201527f45524332303a2064656372656173656420616c6c6f77616e63652062656c6f77604482015264207a65726f60d81b60648201526084016105bd565b61051c828686840361091f565b6000336104db818585610b81565b600081815260066020526040812061043590610f47565b6000828152600560205260409020600101546107ff81610d25565b61054c8383610d51565b6001600160a01b03918216600090815260016020908152604080832093909416825291909152205490565b60075461054c90849030906001600160a01b03168585610f51565b61085982826106e7565b6104ff5760008281526005602090815260408083206001600160a01b03851684529091529020805460ff191660011790556108913390565b6001600160a01b0316816001600160a01b0316837f2f8788117e7eff1d82e926ec794901d17c78024a50270940304540a733656f0d60405160405180910390a45050565b60006106e0836001600160a01b038416611038565b60006001600160e01b03198216637965db0b60e01b148061043557506301ffc9a760e01b6001600160e01b0319831614610435565b6001600160a01b0383166109815760405162461bcd60e51b8152602060048201526024808201527f45524332303a20617070726f76652066726f6d20746865207a65726f206164646044820152637265737360e01b60648201526084016105bd565b6001600160a01b0382166109e25760405162461bcd60e51b815260206004820152602260248201527f45524332303a20617070726f766520746f20746865207a65726f206164647265604482015261737360f01b60648201526084016105bd565b6001600160a01b0383811660008181526001602090815260408083209487168084529482529182902085905590518481527f8c5be1e5ebec7d5bd14f71427d1e84f3dd0314c0f7b2291e5b200ac8c7c3b925910160405180910390a3505050565b833b610a5e57632f8aeb3960e11b6000528360045260246000fd5b6040516323b872dd60e01b6000528360045282602452816044526000806064600080895af180610af8573d15610ad2576020601f3d0104602083048160030281831115610ab957818303600302610200838002858002030401015b5a602082011015610ace573d6000803e3d6000fd5b5050505b63f486bc8760e01b60005285600452846024528360445282606452600160845260a46000fd5b50604052505060006060525050565b6000610b138484610809565b90506000198114610b7b5781811015610b6e5760405162461bcd60e51b815260206004820152601d60248201527f45524332303a20696e73756666696369656e7420616c6c6f77616e636500000060448201526064016105bd565b610b7b848484840361091f565b50505050565b6001600160a01b038316610be55760405162461bcd60e51b815260206004820152602560248201527f45524332303a207472616e736665722066726f6d20746865207a65726f206164604482015264647265737360d81b60648201526084016105bd565b6001600160a01b038216610c475760405162461bcd60e51b815260206004820152602360248201527f45524332303a207472616e7366657220746f20746865207a65726f206164647260448201526265737360e81b60648201526084016105bd565b6001600160a01b03831660009081526020819052604090205481811015610cbf5760405162461bcd60e51b815260206004820152602660248201527f45524332303a207472616e7366657220616d6f756e7420657863656564732062604482015265616c616e636560d01b60648201526084016105bd565b6001600160a01b03848116600081815260208181526040808320878703905593871680835291849020805487019055925185815290927fddf252ad1be2c89b69c2b068fc378daa952ba7f163c4a11628f55a4df523b3ef910160405180910390a3610b7b565b6106898133611087565b610d39828261084f565b600082815260066020526040902061054c90826108d5565b610d5b82826110e0565b600082815260066020526040902061054c9082611147565b6001600160a01b038216610dc95760405162461bcd60e51b815260206004820152601f60248201527f45524332303a206d696e7420746f20746865207a65726f20616464726573730060448201526064016105bd565b8060026000828254610ddb9190611659565b90915550506001600160a01b038216600081815260208181526040808320805486019055518481527fddf252ad1be2c89b69c2b068fc378daa952ba7f163c4a11628f55a4df523b3ef910160405180910390a35050565b6040516323b872dd60e01b600052836004528260245281604452602060006064600080895af1803d15601f3d116001600051141617163d15158116610f2b5780873b151516610f2b5780610f165781610ef5573d15610ecf576020601f3d0104602084048160030281831115610eb657818303600302610200838002858002030401015b5a602082011015610ecb573d6000803e3d6000fd5b5050505b63f486bc8760e01b60005286600452856024528460445260006064528360845260a46000fd5b639889192360e01b6000528660045285602452846044528360645260846000fd5b632f8aeb3960e11b6000528660045260246000fd5b5050604052505060006060525050565b60006106e0838361115c565b6000610435825490565b843b610f6c57632f8aeb3960e11b6000528460045260246000fd5b60405160805160a05160c051637921219560e11b6000528760045286602452856044528460645260a0608452600060a45260008060c46000808d5af18061101c573d15610ff7576020601f3d0104602086048160030281831115610fde57818303600302610200838002858002030401015b5a602082011015610ff3573d6000803e3d6000fd5b5050505b63f486bc8760e01b600052896004528860245287604452866064528560845260a46000fd5b5060809290925260a05260c05260405250506000606052505050565b600081815260018301602052604081205461107f57508154600181810184556000848152602080822090930184905584548482528286019093526040902091909155610435565b506000610435565b61109182826106e7565b6104ff5761109e81611186565b6110a9836020611198565b6040516020016110ba92919061166c565b60408051601f198184030181529082905262461bcd60e51b82526105bd91600401611475565b6110ea82826106e7565b156104ff5760008281526005602090815260408083206001600160a01b0385168085529252808320805460ff1916905551339285917ff6391f5c32d9c69d2a47ea670b442974b53935d1edc7fd64eb21e047a839171b9190a45050565b60006106e0836001600160a01b038416611334565b6000826000018281548110611173576111736116e1565b9060005260206000200154905092915050565b60606104356001600160a01b03831660145b606060006111a78360026116f7565b6111b2906002611659565b67ffffffffffffffff8111156111ca576111ca61170e565b6040519080825280601f01601f1916602001820160405280156111f4576020820181803683370190505b509050600360fc1b8160008151811061120f5761120f6116e1565b60200101906001600160f81b031916908160001a905350600f60fb1b8160018151811061123e5761123e6116e1565b60200101906001600160f81b031916908160001a90535060006112628460026116f7565b61126d906001611659565b90505b60018111156112e5576f181899199a1a9b1b9c1cb0b131b232b360811b85600f16601081106112a1576112a16116e1565b1a60f81b8282815181106112b7576112b76116e1565b60200101906001600160f81b031916908160001a90535060049490941c936112de81611724565b9050611270565b5083156106e05760405162461bcd60e51b815260206004820181905260248201527f537472696e67733a20686578206c656e67746820696e73756666696369656e7460448201526064016105bd565b6000818152600183016020526040812054801561141d57600061135860018361173b565b855490915060009061136c9060019061173b565b90508181146113d157600086600001828154811061138c5761138c6116e1565b90600052602060002001549050808760000184815481106113af576113af6116e1565b6000918252602080832090910192909255918252600188019052604090208390555b85548690806113e2576113e261174e565b600190038181906000526020600020016000905590558560010160008681526020019081526020016000206000905560019350505050610435565b6000915050610435565b60006020828403121561143957600080fd5b81356001600160e01b0319811681146106e057600080fd5b60005b8381101561146c578181015183820152602001611454565b50506000910152565b6020815260008251806020840152611494816040850160208701611451565b601f01601f19169190910160400192915050565b80356001600160a01b03811681146114bf57600080fd5b919050565b600080604083850312156114d757600080fd5b6114e0836114a8565b946020939093013593505050565b60008060006060848603121561150357600080fd5b61150c846114a8565b925061151a602085016114a8565b9150604084013590509250925092565b60006020828403121561153c57600080fd5b5035919050565b6000806040838503121561155657600080fd5b82359150611566602084016114a8565b90509250929050565b60006020828403121561158157600080fd5b6106e0826114a8565b6000806040838503121561159d57600080fd5b50508035926020909101359150565b600080604083850312156115bf57600080fd5b6115c8836114a8565b9150611566602084016114a8565b6000806000606084860312156115eb57600080fd5b6115f4846114a8565b95602085013595506040909401359392505050565b600181811c9082168061161d57607f821691505b60208210810361163d57634e487b7160e01b600052602260045260246000fd5b50919050565b634e487b7160e01b600052601160045260246000fd5b8082018082111561043557610435611643565b7f416363657373436f6e74726f6c3a206163636f756e74200000000000000000008152600083516116a4816017850160208801611451565b7001034b99036b4b9b9b4b733903937b6329607d1b60179184019182015283516116d5816028840160208801611451565b01602801949350505050565b634e487b7160e01b600052603260045260246000fd5b808202811582820484141761043557610435611643565b634e487b7160e01b600052604160045260246000fd5b60008161173357611733611643565b506000190190565b8181038181111561043557610435611643565b634e487b7160e01b600052603160045260246000fdfe9f2df0fed2c77648de5860a4cc508cd0818c85b8b8a1ab4ceeef8d981c8956a6a2646970667358221220702125a3fd40e168fbc4a806d1ae32655c465242c65dc761846ccbe5b904064564736f6c63430008110033",
  "linkReferences": {},
  "deployedLinkReferences": {}
}