{
  "_format": "hh-sol-artifact-1",
  "contractName": "MainGame",
  "sourceName": "contracts/MainGame.sol",
  "abi": [
    {
      "inputs": [
        {
          "internalType": "address",
          "name": "nft_",
          "type": "address"
        },
        {
          "internalType": "address",
          "name": "token_",
          "type": "address"
        }
      ],
      "stateMutability": "payable",
      "type": "constructor"
    },
    {
      "inputs": [
        {
          "internalType": "address",
          "name": "token",
          "type": "address"
        },
        {
          "internalType": "address",
          "name": "from",
          "type": "address"
        },
        {
          "internalType": "address",
          "name": "to",
          "type": "address"
        },
        {
          "internalType": "uint256",
          "name": "amount",
          "type": "uint256"
        }
      ],
      "name": "BadReturnValueFromERC20OnTransfer",
      "type": "error"
    },
    {
      "inputs": [],
      "name": "ClaimCouldNotBeProcessed",
      "type": "error"
    },
    {
      "inputs": [
        {
          "internalType": "address",
          "name": "token",
          "type": "address"
        },
        {
          "internalType": "address",
          "name": "from",
          "type": "address"
        },
        {
          "internalType": "address",
          "name": "to",
          "type": "address"
        },
        {
          "internalType": "uint256[]",
          "name": "identifiers",
          "type": "uint256[]"
        },
        {
          "internalType": "uint256[]",
          "name": "amounts",
          "type": "uint256[]"
        }
      ],
      "name": "ERC1155BatchTransferGenericFailure",
      "type": "error"
    },
    {
      "inputs": [],
      "name": "GameCanOnlyOncePerDay",
      "type": "error"
    },
    {
      "inputs": [],
      "name": "Invalid1155BatchTransferEncoding",
      "type": "error"
    },
    {
      "inputs": [],
      "name": "InvalidERC721TransferAmount",
      "type": "error"
    },
    {
      "inputs": [],
      "name": "MissingItemAmount",
      "type": "error"
    },
    {
      "inputs": [
        {
          "internalType": "address",
          "name": "account",
          "type": "address"
        }
      ],
      "name": "NoContract",
      "type": "error"
    },
    {
      "inputs": [],
      "name": "NotTokenIdOwner",
      "type": "error"
    },
    {
      "inputs": [],
      "name": "SentFromContract",
      "type": "error"
    },
    {
      "inputs": [
        {
          "internalType": "address",
          "name": "token",
          "type": "address"
        },
        {
          "internalType": "address",
          "name": "from",
          "type": "address"
        },
        {
          "internalType": "address",
          "name": "to",
          "type": "address"
        },
        {
          "internalType": "uint256",
          "name": "identifier",
          "type": "uint256"
        },
        {
          "internalType": "uint256",
          "name": "amount",
          "type": "uint256"
        }
      ],
      "name": "TokenTransferGenericFailure",
      "type": "error"
    },
    {
      "inputs": [],
      "name": "UnusedItemParameters",
      "type": "error"
    },
    {
      "inputs": [],
      "name": "WithdrawCouldNotBeProcessed",
      "type": "error"
    },
    {
      "anonymous": false,
      "inputs": [
        {
          "indexed": true,
          "internalType": "address",
          "name": "previousOwner",
          "type": "address"
        },
        {
          "indexed": true,
          "internalType": "address",
          "name": "newOwner",
          "type": "address"
        }
      ],
      "name": "OwnershipTransferred",
      "type": "event"
    },
    {
      "inputs": [
        {
          "internalType": "address",
          "name": "token_",
          "type": "address"
        },
        {
          "internalType": "uint256",
          "name": "tokenId_",
          "type": "uint256"
        },
        {
          "internalType": "uint256",
          "name": "amount_",
          "type": "uint256"
        }
      ],
      "name": "ERC1155Transfer",
      "outputs": [],
      "stateMutability": "nonpayable",
      "type": "function"
    },
    {
      "inputs": [
        {
          "internalType": "address",
          "name": "token_",
          "type": "address"
        },
        {
          "internalType": "uint256",
          "name": "amount_",
          "type": "uint256"
        }
      ],
      "name": "ERC20Transfer",
      "outputs": [],
      "stateMutability": "nonpayable",
      "type": "function"
    },
    {
      "inputs": [
        {
          "internalType": "address",
          "name": "token_",
          "type": "address"
        },
        {
          "internalType": "uint256",
          "name": "tokenId_",
          "type": "uint256"
        }
      ],
      "name": "ERC721Transfer",
      "outputs": [],
      "stateMutability": "nonpayable",
      "type": "function"
    },
    {
      "inputs": [],
      "name": "_nft",
      "outputs": [
        {
          "internalType": "address",
          "name": "",
          "type": "address"
        }
      ],
      "stateMutability": "view",
      "type": "function"
    },
    {
      "inputs": [],
      "name": "_token",
      "outputs": [
        {
          "internalType": "address",
          "name": "",
          "type": "address"
        }
      ],
      "stateMutability": "view",
      "type": "function"
    },
    {
      "inputs": [],
      "name": "claim",
      "outputs": [],
      "stateMutability": "nonpayable",
      "type": "function"
    },
    {
      "inputs": [],
      "name": "dailyAllocation",
      "outputs": [
        {
          "internalType": "uint256",
          "name": "",
          "type": "uint256"
        }
      ],
      "stateMutability": "view",
      "type": "function"
    },
    {
      "inputs": [
        {
          "internalType": "uint256",
          "name": "tokenId_",
          "type": "uint256"
        }
      ],
      "name": "game",
      "outputs": [],
      "stateMutability": "nonpayable",
      "type": "function"
    },
    {
      "inputs": [],
      "name": "owner",
      "outputs": [
        {
          "internalType": "address",
          "name": "",
          "type": "address"
        }
      ],
      "stateMutability": "view",
      "type": "function"
    },
    {
      "inputs": [],
      "name": "renounceOwnership",
      "outputs": [],
      "stateMutability": "nonpayable",
      "type": "function"
    },
    {
      "inputs": [
        {
          "internalType": "uint256",
          "name": "",
          "type": "uint256"
        }
      ],
      "name": "tokenId",
      "outputs": [
        {
          "internalType": "uint256",
          "name": "",
          "type": "uint256"
        }
      ],
      "stateMutability": "view",
      "type": "function"
    },
    {
      "inputs": [
        {
          "internalType": "address",
          "name": "newOwner",
          "type": "address"
        }
      ],
      "name": "transferOwnership",
      "outputs": [],
      "stateMutability": "nonpayable",
      "type": "function"
    },
    {
      "inputs": [],
      "name": "voteTotal",
      "outputs": [
        {
          "internalType": "uint256",
          "name": "",
          "type": "uint256"
        }
      ],
      "stateMutability": "view",
      "type": "function"
    },
    {
      "inputs": [],
      "name": "withdraw",
      "outputs": [],
      "stateMutability": "nonpayable",
      "type": "function"
    }
  ],
  "bytecode": "0x610100604052611770600255604051610cb0380380610cb0833981016040819052610029916100c1565b61003233610055565b610e1060805261025860a0526001600160a01b0391821660c0521660e0526100f4565b600080546001600160a01b038381166001600160a01b0319831681178455604051919092169283917f8be0079c531659141344cd1fd0a4f28419497f9722a3daafe3b4186f6b6457e09190a35050565b80516001600160a01b03811681146100bc57600080fd5b919050565b600080604083850312156100d457600080fd5b6100dd836100a5565b91506100eb602084016100a5565b90509250929050565b60805160a05160c05160e051610b78610138600039600081816101d8015261033901526000818161019e015261044001526000505060006104e30152610b786000f3fe608060405234801561001057600080fd5b50600436106100ea5760003560e01c80638a6db1721161008c578063cddbe72911610066578063cddbe729146101c0578063ecd0c0c3146101d3578063f1d86bf3146101fa578063f2fde38b1461020d57600080fd5b80638a6db172146101615780638da5cb5b1461017457806398300e181461019957600080fd5b80634e71d92d116100c85780634e71d92d14610128578063520c683814610130578063715018a6146101395780637dcb0e5f1461014157600080fd5b8063211b87f8146100ef5780633ccfd60b146101045780633e808c901461010c575b600080fd5b6101026100fd3660046109d7565b610220565b005b610102610241565b61011560015481565b6040519081526020015b60405180910390f35b6101026102b8565b61011560025481565b6101026103ce565b61011561014f366004610a03565b60036020526000908152604090205481565b61010261016f3660046109d7565b6103e2565b6000546001600160a01b03165b6040516001600160a01b03909116815260200161011f565b6101817f000000000000000000000000000000000000000000000000000000000000000081565b6101026101ce366004610a03565b6103ff565b6101817f000000000000000000000000000000000000000000000000000000000000000081565b610102610208366004610a1c565b6105cb565b61010261021b366004610a51565b6105e9565b61023d82306102376000546001600160a01b031690565b84610664565b5050565b600080546040516001600160a01b039091169047908381818185875af1925050503d806000811461028e576040519150601f19603f3d011682016040523d82523d6000602084013e610293565b606091505b50509050806102b55760405163c51e206760e01b815260040160405180910390fd5b50565b600154336000908152600460205260408120546002549192916102db9190610a8b565b6102e59190610aa8565b6040513360248201526044810182905290915060009060640160408051601f198184030181529181526020820180516001600160e01b03166340c10f1960e01b179052519091506000906001600160a01b037f00000000000000000000000000000000000000000000000000000000000000001690610365908490610aca565b6000604051808303816000865af19150503d80600081146103a2576040519150601f19603f3d011682016040523d82523d6000602084013e6103a7565b606091505b50509050806103c957604051630a1d5c6760e31b815260040160405180910390fd5b505050565b6103d6610728565b6103e06000610782565b565b61023d82306103f96000546001600160a01b031690565b846107d2565b333b8015610420576040516329dbea1360e11b815260040160405180910390fd5b6040516331a9108f60e11b81526004810183905233906001600160a01b037f00000000000000000000000000000000000000000000000000000000000000001690636352211e90602401602060405180830381865afa158015610487573d6000803e3d6000fd5b505050506040513d601f19601f820116820180604052508101906104ab9190610af9565b6001600160a01b0316146104d257604051632d20000f60e01b815260040160405180910390fd5b6000828152600360205260409020547f00000000000000000000000000000000000000000000000000000000000000009061050d9042610b16565b101561052c5760405163ef01126360e01b815260040160405180910390fd5b6040516bffffffffffffffffffffffff193360601b1660208201524260348201526054810183905260009060740160408051601f19818403018152918152815160209283012060008681526003909352912042905590506007811c158015906105c5573360009081526004602052604081208054916105aa83610b29565b9091555050600180549060006105bf83610b29565b91905055505b50505050565b6103c983306105e26000546001600160a01b031690565b85856108db565b6105f1610728565b6001600160a01b03811661065b5760405162461bcd60e51b815260206004820152602660248201527f4f776e61626c653a206e6577206f776e657220697320746865207a65726f206160448201526564647265737360d01b60648201526084015b60405180910390fd5b6102b581610782565b833b61067f57632f8aeb3960e11b6000528360045260246000fd5b6040516323b872dd60e01b6000528360045282602452816044526000806064600080895af180610719573d156106f3576020601f3d01046020830481600302818311156106da57818303600302610200838002858002030401015b5a6020820110156106ef573d6000803e3d6000fd5b5050505b63f486bc8760e01b60005285600452846024528360445282606452600160845260a46000fd5b50604052505060006060525050565b6000546001600160a01b031633146103e05760405162461bcd60e51b815260206004820181905260248201527f4f776e61626c653a2063616c6c6572206973206e6f7420746865206f776e65726044820152606401610652565b600080546001600160a01b038381166001600160a01b0319831681178455604051919092169283917f8be0079c531659141344cd1fd0a4f28419497f9722a3daafe3b4186f6b6457e09190a35050565b6040516323b872dd60e01b600052836004528260245281604452602060006064600080895af1803d15601f3d116001600051141617163d151581166108cb5780873b1515166108cb57806108b65781610895573d1561086f576020601f3d010460208404816003028183111561085657818303600302610200838002858002030401015b5a60208201101561086b573d6000803e3d6000fd5b5050505b63f486bc8760e01b60005286600452856024528460445260006064528360845260a46000fd5b639889192360e01b6000528660045285602452846044528360645260846000fd5b632f8aeb3960e11b6000528660045260246000fd5b5050604052505060006060525050565b843b6108f657632f8aeb3960e11b6000528460045260246000fd5b60405160805160a05160c051637921219560e11b6000528760045286602452856044528460645260a0608452600060a45260008060c46000808d5af1806109a6573d15610981576020601f3d010460208604816003028183111561096857818303600302610200838002858002030401015b5a60208201101561097d573d6000803e3d6000fd5b5050505b63f486bc8760e01b600052896004528860245287604452866064528560845260a46000fd5b5060809290925260a05260c05260405250506000606052505050565b6001600160a01b03811681146102b557600080fd5b600080604083850312156109ea57600080fd5b82356109f5816109c2565b946020939093013593505050565b600060208284031215610a1557600080fd5b5035919050565b600080600060608486031215610a3157600080fd5b8335610a3c816109c2565b95602085013595506040909401359392505050565b600060208284031215610a6357600080fd5b8135610a6e816109c2565b9392505050565b634e487b7160e01b600052601160045260246000fd5b8082028115828204841417610aa257610aa2610a75565b92915050565b600082610ac557634e487b7160e01b600052601260045260246000fd5b500490565b6000825160005b81811015610aeb5760208186018101518583015201610ad1565b506000920191825250919050565b600060208284031215610b0b57600080fd5b8151610a6e816109c2565b81810381811115610aa257610aa2610a75565b600060018201610b3b57610b3b610a75565b506001019056fea2646970667358221220c7108062b820f095f39b4ca376e3d503d6705c96b057fff7182ff2605ec1257a64736f6c63430008110033",
  "linkReferences": {},
  "deployedLinkReferences": {}
}