{
  "_format": "hh-sol-artifact-1",
  "contractName": "MainNFT",
  "sourceName": "contracts/MainNFT.sol",
  "abi": [
    {
      "inputs": [
        {
          "internalType": "string",
          "name": "_name",
          "type": "string"
        },
        {
          "internalType": "string",
          "name": "_symbol",
          "type": "string"
        }
      ],
      "stateMutability": "nonpayable",
      "type": "constructor"
    },
    {
      "inputs": [
        {
          "internalType": "address",
          "name": "token",
          "type": "address"
        },
        {
          "internalType": "address",
          "name": "from",
          "type": "address"
        },
        {
          "internalType": "address",
          "name": "to",
          "type": "address"
        },
        {
          "internalType": "uint256",
          "name": "amount",
          "type": "uint256"
        }
      ],
      "name": "BadReturnValueFromERC20OnTransfer",
      "type": "error"
    },
    {
      "inputs": [],
      "name": "ContractLocked",
      "type": "error"
    },
    {
      "inputs": [
        {
          "internalType": "address",
          "name": "token",
          "type": "address"
        },
        {
          "internalType": "address",
          "name": "from",
          "type": "address"
        },
        {
          "internalType": "address",
          "name": "to",
          "type": "address"
        },
        {
          "internalType": "uint256[]",
          "name": "identifiers",
          "type": "uint256[]"
        },
        {
          "internalType": "uint256[]",
          "name": "amounts",
          "type": "uint256[]"
        }
      ],
      "name": "ERC1155BatchTransferGenericFailure",
      "type": "error"
    },
    {
      "inputs": [],
      "name": "InputAlreadySet",
      "type": "error"
    },
    {
      "inputs": [],
      "name": "Invalid1155BatchTransferEncoding",
      "type": "error"
    },
    {
      "inputs": [],
      "name": "InvalidERC721TransferAmount",
      "type": "error"
    },
    {
      "inputs": [],
      "name": "MaxSupplyReached",
      "type": "error"
    },
    {
      "inputs": [],
      "name": "MissingItemAmount",
      "type": "error"
    },
    {
      "inputs": [
        {
          "internalType": "address",
          "name": "account",
          "type": "address"
        }
      ],
      "name": "NoContract",
      "type": "error"
    },
    {
      "inputs": [],
      "name": "NotOwnerOrApproved",
      "type": "error"
    },
    {
      "inputs": [
        {
          "internalType": "uint256",
          "name": "tokenId",
          "type": "uint256"
        }
      ],
      "name": "TokenIndexDoesNotExist",
      "type": "error"
    },
    {
      "inputs": [
        {
          "internalType": "address",
          "name": "token",
          "type": "address"
        },
        {
          "internalType": "address",
          "name": "from",
          "type": "address"
        },
        {
          "internalType": "address",
          "name": "to",
          "type": "address"
        },
        {
          "internalType": "uint256",
          "name": "identifier",
          "type": "uint256"
        },
        {
          "internalType": "uint256",
          "name": "amount",
          "type": "uint256"
        }
      ],
      "name": "TokenTransferGenericFailure",
      "type": "error"
    },
    {
      "inputs": [],
      "name": "UnusedItemParameters",
      "type": "error"
    },
    {
      "inputs": [],
      "name": "WithdrawCouldNotBeProcessed",
      "type": "error"
    },
    {
      "anonymous": false,
      "inputs": [
        {
          "indexed": true,
          "internalType": "address",
          "name": "owner",
          "type": "address"
        },
        {
          "indexed": true,
          "internalType": "address",
          "name": "approved",
          "type": "address"
        },
        {
          "indexed": true,
          "internalType": "uint256",
          "name": "tokenId",
          "type": "uint256"
        }
      ],
      "name": "Approval",
      "type": "event"
    },
    {
      "anonymous": false,
      "inputs": [
        {
          "indexed": true,
          "internalType": "address",
          "name": "owner",
          "type": "address"
        },
        {
          "indexed": true,
          "internalType": "address",
          "name": "operator",
          "type": "address"
        },
        {
          "indexed": false,
          "internalType": "bool",
          "name": "approved",
          "type": "bool"
        }
      ],
      "name": "ApprovalForAll",
      "type": "event"
    },
    {
      "anonymous": false,
      "inputs": [],
      "name": "Lock",
      "type": "event"
    },
    {
      "anonymous": false,
      "inputs": [
        {
          "indexed": true,
          "internalType": "address",
          "name": "token",
          "type": "address"
        },
        {
          "indexed": false,
          "internalType": "uint256",
          "name": "tokenId",
          "type": "uint256"
        }
      ],
      "name": "NonFungibleTokenRecovery",
      "type": "event"
    },
    {
      "anonymous": false,
      "inputs": [
        {
          "indexed": true,
          "internalType": "address",
          "name": "previousOwner",
          "type": "address"
        },
        {
          "indexed": true,
          "internalType": "address",
          "name": "newOwner",
          "type": "address"
        }
      ],
      "name": "OwnershipTransferred",
      "type": "event"
    },
    {
      "anonymous": false,
      "inputs": [
        {
          "indexed": true,
          "internalType": "address",
          "name": "token",
          "type": "address"
        },
        {
          "indexed": false,
          "internalType": "uint256",
          "name": "amount",
          "type": "uint256"
        }
      ],
      "name": "TokenRecovery",
      "type": "event"
    },
    {
      "anonymous": false,
      "inputs": [
        {
          "indexed": true,
          "internalType": "address",
          "name": "from",
          "type": "address"
        },
        {
          "indexed": true,
          "internalType": "address",
          "name": "to",
          "type": "address"
        },
        {
          "indexed": true,
          "internalType": "uint256",
          "name": "tokenId",
          "type": "uint256"
        }
      ],
      "name": "Transfer",
      "type": "event"
    },
    {
      "anonymous": false,
      "inputs": [
        {
          "indexed": false,
          "internalType": "address",
          "name": "token",
          "type": "address"
        },
        {
          "indexed": false,
          "internalType": "address",
          "name": "to",
          "type": "address"
        },
        {
          "indexed": false,
          "internalType": "uint256",
          "name": "amount",
          "type": "uint256"
        }
      ],
      "name": "WithdrawERC20",
      "type": "event"
    },
    {
      "inputs": [
        {
          "internalType": "address",
          "name": "token_",
          "type": "address"
        },
        {
          "internalType": "uint256",
          "name": "tokenId_",
          "type": "uint256"
        },
        {
          "internalType": "uint256",
          "name": "amount_",
          "type": "uint256"
        }
      ],
      "name": "ERC1155Transfer",
      "outputs": [],
      "stateMutability": "nonpayable",
      "type": "function"
    },
    {
      "inputs": [
        {
          "internalType": "address",
          "name": "token_",
          "type": "address"
        },
        {
          "internalType": "uint256",
          "name": "amount_",
          "type": "uint256"
        }
      ],
      "name": "ERC20Transfer",
      "outputs": [],
      "stateMutability": "nonpayable",
      "type": "function"
    },
    {
      "inputs": [
        {
          "internalType": "address",
          "name": "token_",
          "type": "address"
        },
        {
          "internalType": "uint256",
          "name": "tokenId_",
          "type": "uint256"
        }
      ],
      "name": "ERC721Transfer",
      "outputs": [],
      "stateMutability": "nonpayable",
      "type": "function"
    },
    {
      "inputs": [],
      "name": "_maxSupply",
      "outputs": [
        {
          "internalType": "uint256",
          "name": "",
          "type": "uint256"
        }
      ],
      "stateMutability": "view",
      "type": "function"
    },
    {
      "inputs": [
        {
          "internalType": "address",
          "name": "to",
          "type": "address"
        },
        {
          "internalType": "uint256",
          "name": "tokenId",
          "type": "uint256"
        }
      ],
      "name": "approve",
      "outputs": [],
      "stateMutability": "nonpayable",
      "type": "function"
    },
    {
      "inputs": [
        {
          "internalType": "address",
          "name": "owner",
          "type": "address"
        }
      ],
      "name": "balanceOf",
      "outputs": [
        {
          "internalType": "uint256",
          "name": "",
          "type": "uint256"
        }
      ],
      "stateMutability": "view",
      "type": "function"
    },
    {
      "inputs": [],
      "name": "baseURI",
      "outputs": [
        {
          "internalType": "string",
          "name": "",
          "type": "string"
        }
      ],
      "stateMutability": "view",
      "type": "function"
    },
    {
      "inputs": [
        {
          "internalType": "uint256",
          "name": "tokenId",
          "type": "uint256"
        }
      ],
      "name": "getApproved",
      "outputs": [
        {
          "internalType": "address",
          "name": "",
          "type": "address"
        }
      ],
      "stateMutability": "view",
      "type": "function"
    },
    {
      "inputs": [
        {
          "internalType": "address",
          "name": "owner",
          "type": "address"
        },
        {
          "internalType": "address",
          "name": "operator",
          "type": "address"
        }
      ],
      "name": "isApprovedForAll",
      "outputs": [
        {
          "internalType": "bool",
          "name": "",
          "type": "bool"
        }
      ],
      "stateMutability": "view",
      "type": "function"
    },
    {
      "inputs": [],
      "name": "isLocked",
      "outputs": [
        {
          "internalType": "bool",
          "name": "",
          "type": "bool"
        }
      ],
      "stateMutability": "view",
      "type": "function"
    },
    {
      "inputs": [
        {
          "internalType": "bool",
          "name": "state",
          "type": "bool"
        }
      ],
      "name": "lock",
      "outputs": [],
      "stateMutability": "nonpayable",
      "type": "function"
    },
    {
      "inputs": [
        {
          "internalType": "address",
          "name": "_to",
          "type": "address"
        },
        {
          "internalType": "uint256",
          "name": "_tokenId",
          "type": "uint256"
        }
      ],
      "name": "mint",
      "outputs": [],
      "stateMutability": "nonpayable",
      "type": "function"
    },
    {
      "inputs": [],
      "name": "name",
      "outputs": [
        {
          "internalType": "string",
          "name": "",
          "type": "string"
        }
      ],
      "stateMutability": "view",
      "type": "function"
    },
    {
      "inputs": [],
      "name": "owner",
      "outputs": [
        {
          "internalType": "address",
          "name": "",
          "type": "address"
        }
      ],
      "stateMutability": "view",
      "type": "function"
    },
    {
      "inputs": [
        {
          "internalType": "uint256",
          "name": "tokenId",
          "type": "uint256"
        }
      ],
      "name": "ownerOf",
      "outputs": [
        {
          "internalType": "address",
          "name": "",
          "type": "address"
        }
      ],
      "stateMutability": "view",
      "type": "function"
    },
    {
      "inputs": [],
      "name": "renounceOwnership",
      "outputs": [],
      "stateMutability": "nonpayable",
      "type": "function"
    },
    {
      "inputs": [
        {
          "internalType": "address",
          "name": "from",
          "type": "address"
        },
        {
          "internalType": "address",
          "name": "to",
          "type": "address"
        },
        {
          "internalType": "uint256",
          "name": "tokenId",
          "type": "uint256"
        }
      ],
      "name": "safeTransferFrom",
      "outputs": [],
      "stateMutability": "nonpayable",
      "type": "function"
    },
    {
      "inputs": [
        {
          "internalType": "address",
          "name": "from",
          "type": "address"
        },
        {
          "internalType": "address",
          "name": "to",
          "type": "address"
        },
        {
          "internalType": "uint256",
          "name": "tokenId",
          "type": "uint256"
        },
        {
          "internalType": "bytes",
          "name": "data",
          "type": "bytes"
        }
      ],
      "name": "safeTransferFrom",
      "outputs": [],
      "stateMutability": "nonpayable",
      "type": "function"
    },
    {
      "inputs": [
        {
          "internalType": "address",
          "name": "operator",
          "type": "address"
        },
        {
          "internalType": "bool",
          "name": "approved",
          "type": "bool"
        }
      ],
      "name": "setApprovalForAll",
      "outputs": [],
      "stateMutability": "nonpayable",
      "type": "function"
    },
    {
      "inputs": [
        {
          "internalType": "string",
          "name": "_uri",
          "type": "string"
        }
      ],
      "name": "setBaseURI",
      "outputs": [],
      "stateMutability": "nonpayable",
      "type": "function"
    },
    {
      "inputs": [
        {
          "internalType": "bytes4",
          "name": "interfaceId",
          "type": "bytes4"
        }
      ],
      "name": "supportsInterface",
      "outputs": [
        {
          "internalType": "bool",
          "name": "",
          "type": "bool"
        }
      ],
      "stateMutability": "view",
      "type": "function"
    },
    {
      "inputs": [],
      "name": "symbol",
      "outputs": [
        {
          "internalType": "string",
          "name": "",
          "type": "string"
        }
      ],
      "stateMutability": "view",
      "type": "function"
    },
    {
      "inputs": [
        {
          "internalType": "uint256",
          "name": "index",
          "type": "uint256"
        }
      ],
      "name": "tokenByIndex",
      "outputs": [
        {
          "internalType": "uint256",
          "name": "",
          "type": "uint256"
        }
      ],
      "stateMutability": "view",
      "type": "function"
    },
    {
      "inputs": [
        {
          "internalType": "address",
          "name": "owner",
          "type": "address"
        },
        {
          "internalType": "uint256",
          "name": "index",
          "type": "uint256"
        }
      ],
      "name": "tokenOfOwnerByIndex",
      "outputs": [
        {
          "internalType": "uint256",
          "name": "",
          "type": "uint256"
        }
      ],
      "stateMutability": "view",
      "type": "function"
    },
    {
      "inputs": [
        {
          "internalType": "uint256",
          "name": "tokenId",
          "type": "uint256"
        }
      ],
      "name": "tokenURI",
      "outputs": [
        {
          "internalType": "string",
          "name": "",
          "type": "string"
        }
      ],
      "stateMutability": "view",
      "type": "function"
    },
    {
      "inputs": [
        {
          "internalType": "address",
          "name": "user",
          "type": "address"
        },
        {
          "internalType": "uint256",
          "name": "cursor",
          "type": "uint256"
        },
        {
          "internalType": "uint256",
          "name": "size",
          "type": "uint256"
        }
      ],
      "name": "tokensOfOwnerBySize",
      "outputs": [
        {
          "internalType": "uint256[]",
          "name": "",
          "type": "uint256[]"
        },
        {
          "internalType": "uint256",
          "name": "",
          "type": "uint256"
        }
      ],
      "stateMutability": "view",
      "type": "function"
    },
    {
      "inputs": [],
      "name": "totalSupply",
      "outputs": [
        {
          "internalType": "uint256",
          "name": "",
          "type": "uint256"
        }
      ],
      "stateMutability": "view",
      "type": "function"
    },
    {
      "inputs": [
        {
          "internalType": "address",
          "name": "from",
          "type": "address"
        },
        {
          "internalType": "address",
          "name": "to",
          "type": "address"
        },
        {
          "internalType": "uint256",
          "name": "tokenId",
          "type": "uint256"
        }
      ],
      "name": "transferFrom",
      "outputs": [],
      "stateMutability": "nonpayable",
      "type": "function"
    },
    {
      "inputs": [
        {
          "internalType": "address",
          "name": "newOwner",
          "type": "address"
        }
      ],
      "name": "transferOwnership",
      "outputs": [],
      "stateMutability": "nonpayable",
      "type": "function"
    },
    {
      "inputs": [],
      "name": "withdraw",
      "outputs": [],
      "stateMutability": "nonpayable",
      "type": "function"
    },
    {
      "stateMutability": "payable",
      "type": "receive"
    }
  ],
  "bytecode": "0x60806040523480156200001157600080fd5b506040516200288c3803806200288c833981016040819052620000349162000199565b8181600062000044838262000292565b50600162000053828262000292565b505050620000706200006a6200007e60201b60201c565b62000082565b50506101f4600c556200035e565b3390565b600a80546001600160a01b038381166001600160a01b0319831681179093556040519116919082907f8be0079c531659141344cd1fd0a4f28419497f9722a3daafe3b4186f6b6457e090600090a35050565b634e487b7160e01b600052604160045260246000fd5b600082601f830112620000fc57600080fd5b81516001600160401b0380821115620001195762000119620000d4565b604051601f8301601f19908116603f01168101908282118183101715620001445762000144620000d4565b816040528381526020925086838588010111156200016157600080fd5b600091505b8382101562000185578582018301518183018401529082019062000166565b600093810190920192909252949350505050565b60008060408385031215620001ad57600080fd5b82516001600160401b0380821115620001c557600080fd5b620001d386838701620000ea565b93506020850151915080821115620001ea57600080fd5b50620001f985828601620000ea565b9150509250929050565b600181811c908216806200021857607f821691505b6020821081036200023957634e487b7160e01b600052602260045260246000fd5b50919050565b601f8211156200028d57600081815260208120601f850160051c81016020861015620002685750805b601f850160051c820191505b81811015620002895782815560010162000274565b5050505b505050565b81516001600160401b03811115620002ae57620002ae620000d4565b620002c681620002bf845462000203565b846200023f565b602080601f831160018114620002fe5760008415620002e55750858301515b600019600386901b1c1916600185901b17855562000289565b600085815260208120601f198616915b828110156200032f578886015182559484019460019091019084016200030e565b50858210156200034e5787850151600019600388901b60f8161c191681555b5050505050600190811b01905550565b61251e806200036e6000396000f3fe6080604052600436106101d15760003560e01c80636352211e116100f757806395d89b4111610095578063c87b56dd11610064578063c87b56dd14610524578063e985e9c514610544578063f1d86bf31461058d578063f2fde38b146105ad57600080fd5b806395d89b41146104ae578063a22cb465146104c3578063a4e2d634146104e3578063b88d4fde1461050457600080fd5b8063715018a6116100d1578063715018a61461042d578063854ec1af146104425780638a6db172146104705780638da5cb5b1461049057600080fd5b80636352211e146103d85780636c0360eb146103f857806370a082311461040d57600080fd5b806322f4596f1161016f57806340c10f191161013e57806340c10f191461035857806342842e0e146103785780634f6ccce71461039857806355f804b3146103b857600080fd5b806322f4596f146102ed57806323b872dd146103035780632f745c59146103235780633ccfd60b1461034357600080fd5b8063095ea7b3116101ab578063095ea7b31461026c5780630dd0a0421461028e57806318160ddd146102ae578063211b87f8146102cd57600080fd5b806301ffc9a7146101dd57806306fdde0314610212578063081812fc1461023457600080fd5b366101d857005b600080fd5b3480156101e957600080fd5b506101fd6101f8366004611e06565b6105cd565b60405190151581526020015b60405180910390f35b34801561021e57600080fd5b506102276105f8565b6040516102099190611e7a565b34801561024057600080fd5b5061025461024f366004611e8d565b61068a565b6040516001600160a01b039091168152602001610209565b34801561027857600080fd5b5061028c610287366004611ec2565b6106b1565b005b34801561029a57600080fd5b5061028c6102a9366004611efc565b6107cb565b3480156102ba57600080fd5b506008545b604051908152602001610209565b3480156102d957600080fd5b5061028c6102e8366004611ec2565b610849565b3480156102f957600080fd5b506102bf600c5481565b34801561030f57600080fd5b5061028c61031e366004611f17565b61086a565b34801561032f57600080fd5b506102bf61033e366004611ec2565b61089c565b34801561034f57600080fd5b5061028c610932565b34801561036457600080fd5b5061028c610373366004611ec2565b6109ba565b34801561038457600080fd5b5061028c610393366004611f17565b6109f0565b3480156103a457600080fd5b506102bf6103b3366004611e8d565b610a0b565b3480156103c457600080fd5b5061028c6103d3366004611fdf565b610a9e565b3480156103e457600080fd5b506102546103f3366004611e8d565b610add565b34801561040457600080fd5b50610227610b3d565b34801561041957600080fd5b506102bf610428366004612028565b610bcb565b34801561043957600080fd5b5061028c610c51565b34801561044e57600080fd5b5061046261045d366004612043565b610c65565b604051610209929190612076565b34801561047c57600080fd5b5061028c61048b366004611ec2565b610d45565b34801561049c57600080fd5b50600a546001600160a01b0316610254565b3480156104ba57600080fd5b50610227610d62565b3480156104cf57600080fd5b5061028c6104de3660046120be565b610d71565b3480156104ef57600080fd5b50600a546101fd90600160a01b900460ff1681565b34801561051057600080fd5b5061028c61051f3660046120f1565b610d7c565b34801561053057600080fd5b5061022761053f366004611e8d565b610dfa565b34801561055057600080fd5b506101fd61055f36600461216d565b6001600160a01b03918216600090815260056020908152604080832093909416825291909152205460ff1690565b34801561059957600080fd5b5061028c6105a8366004612043565b610e91565b3480156105b957600080fd5b5061028c6105c8366004612028565b610eaf565b60006001600160e01b0319821663780e9d6360e01b14806105f257506105f282610f25565b92915050565b60606000805461060790612197565b80601f016020809104026020016040519081016040528092919081815260200182805461063390612197565b80156106805780601f1061065557610100808354040283529160200191610680565b820191906000526020600020905b81548152906001019060200180831161066357829003601f168201915b5050505050905090565b600061069582610f75565b506000908152600460205260409020546001600160a01b031690565b60006106bc82610add565b9050806001600160a01b0316836001600160a01b03160361072e5760405162461bcd60e51b815260206004820152602160248201527f4552433732313a20617070726f76616c20746f2063757272656e74206f776e656044820152603960f91b60648201526084015b60405180910390fd5b336001600160a01b038216148061074a575061074a813361055f565b6107bc5760405162461bcd60e51b815260206004820152603d60248201527f4552433732313a20617070726f76652063616c6c6572206973206e6f7420746f60448201527f6b656e206f776e6572206f7220617070726f76656420666f7220616c6c0000006064820152608401610725565b6107c68383610fd4565b505050565b6107d3611042565b801515600a60149054906101000a900460ff161515036108065760405163f144eaad60e01b815260040160405180910390fd5b600a805460ff60a01b1916600160a01b831515021790556040517f46620e39f4e119bf05f13544f8ef38338fc06c17f6b731c7f95bee356572db9690600090a150565b6108668230610860600a546001600160a01b031690565b8461109c565b5050565b6108743382611160565b61089157604051636d8a29e760e11b815260040160405180910390fd5b6107c68383836111df565b60006108a783610bcb565b82106109095760405162461bcd60e51b815260206004820152602b60248201527f455243373231456e756d657261626c653a206f776e657220696e646578206f7560448201526a74206f6620626f756e647360a81b6064820152608401610725565b506001600160a01b03919091166000908152600660209081526040808320938352929052205490565b6000610946600a546001600160a01b031690565b6001600160a01b03164760405160006040518083038185875af1925050503d8060008114610990576040519150601f19603f3d011682016040523d82523d6000602084013e610995565b606091505b50509050806109b75760405163c51e206760e01b815260040160405180910390fd5b50565b6109c2611042565b600c54600854106109e65760405163d05cb60960e01b815260040160405180910390fd5b6108668282611350565b6107c683838360405180602001604052806000815250610d7c565b6000610a1660085490565b8210610a795760405162461bcd60e51b815260206004820152602c60248201527f455243373231456e756d657261626c653a20676c6f62616c20696e646578206f60448201526b7574206f6620626f756e647360a01b6064820152608401610725565b60088281548110610a8c57610a8c6121d1565b90600052602060002001549050919050565b610aa6611042565b600a54600160a01b900460ff1615610ad1576040516337affdbf60e11b815260040160405180910390fd5b600b6108668282612235565b6000818152600260205260408120546001600160a01b0316806105f25760405162461bcd60e51b8152602060048201526018602482015277115490cdcc8c4e881a5b9d985b1a59081d1bdad95b88125160421b6044820152606401610725565b600b8054610b4a90612197565b80601f0160208091040260200160405190810160405280929190818152602001828054610b7690612197565b8015610bc35780601f10610b9857610100808354040283529160200191610bc3565b820191906000526020600020905b815481529060010190602001808311610ba657829003601f168201915b505050505081565b60006001600160a01b038216610c355760405162461bcd60e51b815260206004820152602960248201527f4552433732313a2061646472657373207a65726f206973206e6f7420612076616044820152683634b21037bbb732b960b91b6064820152608401610725565b506001600160a01b031660009081526003602052604090205490565b610c59611042565b610c6360006114e9565b565b606060008284610c7487610bcb565b610c7e919061230b565b811115610c9c5784610c8f87610bcb565b610c99919061230b565b90505b60008167ffffffffffffffff811115610cb757610cb7611f53565b604051908082528060200260200182016040528015610ce0578160200160208202803683370190505b50905060005b82811015610d2b57610cfc8861033e838a61231e565b828281518110610d0e57610d0e6121d1565b602090810291909101015280610d2381612331565b915050610ce6565b5080610d37838861231e565b935093505050935093915050565b6108668230610d5c600a546001600160a01b031690565b8461153b565b60606001805461060790612197565b610866338383611644565b610d863383611160565b610de85760405162461bcd60e51b815260206004820152602d60248201527f4552433732313a2063616c6c6572206973206e6f7420746f6b656e206f776e6560448201526c1c881bdc88185c1c1c9bdd9959609a1b6064820152608401610725565b610df484848484611712565b50505050565b6000818152600260205260409020546060906001600160a01b0316610e3557604051634dde552b60e01b815260048101839052602401610725565b6000600b8054610e4490612197565b905011610e6057604051806020016040528060008152506105f2565b600b610e6b83611745565b604051602001610e7c92919061234a565b60405160208183030381529060405292915050565b6107c68330610ea8600a546001600160a01b031690565b85856117d8565b610eb7611042565b6001600160a01b038116610f1c5760405162461bcd60e51b815260206004820152602660248201527f4f776e61626c653a206e6577206f776e657220697320746865207a65726f206160448201526564647265737360d01b6064820152608401610725565b6109b7816114e9565b60006001600160e01b031982166380ac58cd60e01b1480610f5657506001600160e01b03198216635b5e139f60e01b145b806105f257506301ffc9a760e01b6001600160e01b03198316146105f2565b6000818152600260205260409020546001600160a01b03166109b75760405162461bcd60e51b8152602060048201526018602482015277115490cdcc8c4e881a5b9d985b1a59081d1bdad95b88125160421b6044820152606401610725565b600081815260046020526040902080546001600160a01b0319166001600160a01b038416908117909155819061100982610add565b6001600160a01b03167f8c5be1e5ebec7d5bd14f71427d1e84f3dd0314c0f7b2291e5b200ac8c7c3b92560405160405180910390a45050565b600a546001600160a01b03163314610c635760405162461bcd60e51b815260206004820181905260248201527f4f776e61626c653a2063616c6c6572206973206e6f7420746865206f776e65726044820152606401610725565b833b6110b757632f8aeb3960e11b6000528360045260246000fd5b6040516323b872dd60e01b6000528360045282602452816044526000806064600080895af180611151573d1561112b576020601f3d010460208304816003028183111561111257818303600302610200838002858002030401015b5a602082011015611127573d6000803e3d6000fd5b5050505b63f486bc8760e01b60005285600452846024528360445282606452600160845260a46000fd5b50604052505060006060525050565b60008061116c83610add565b9050806001600160a01b0316846001600160a01b031614806111b357506001600160a01b0380821660009081526005602090815260408083209388168352929052205460ff165b806111d75750836001600160a01b03166111cc8461068a565b6001600160a01b0316145b949350505050565b826001600160a01b03166111f282610add565b6001600160a01b0316146112185760405162461bcd60e51b8152600401610725906123e1565b6001600160a01b03821661127a5760405162461bcd60e51b8152602060048201526024808201527f4552433732313a207472616e7366657220746f20746865207a65726f206164646044820152637265737360e01b6064820152608401610725565b61128783838360016118bf565b826001600160a01b031661129a82610add565b6001600160a01b0316146112c05760405162461bcd60e51b8152600401610725906123e1565b600081815260046020908152604080832080546001600160a01b03199081169091556001600160a01b0387811680865260038552838620805460001901905590871680865283862080546001019055868652600290945282852080549092168417909155905184937fddf252ad1be2c89b69c2b068fc378daa952ba7f163c4a11628f55a4df523b3ef91a4505050565b6001600160a01b0382166113a65760405162461bcd60e51b815260206004820181905260248201527f4552433732313a206d696e7420746f20746865207a65726f20616464726573736044820152606401610725565b6000818152600260205260409020546001600160a01b03161561140b5760405162461bcd60e51b815260206004820152601c60248201527f4552433732313a20746f6b656e20616c7265616479206d696e746564000000006044820152606401610725565b6114196000838360016118bf565b6000818152600260205260409020546001600160a01b03161561147e5760405162461bcd60e51b815260206004820152601c60248201527f4552433732313a20746f6b656e20616c7265616479206d696e746564000000006044820152606401610725565b6001600160a01b038216600081815260036020908152604080832080546001019055848352600290915280822080546001600160a01b0319168417905551839291907fddf252ad1be2c89b69c2b068fc378daa952ba7f163c4a11628f55a4df523b3ef908290a45050565b600a80546001600160a01b038381166001600160a01b0319831681179093556040519116919082907f8be0079c531659141344cd1fd0a4f28419497f9722a3daafe3b4186f6b6457e090600090a35050565b6040516323b872dd60e01b600052836004528260245281604452602060006064600080895af1803d15601f3d116001600051141617163d151581166116345780873b151516611634578061161f57816115fe573d156115d8576020601f3d01046020840481600302818311156115bf57818303600302610200838002858002030401015b5a6020820110156115d4573d6000803e3d6000fd5b5050505b63f486bc8760e01b60005286600452856024528460445260006064528360845260a46000fd5b639889192360e01b6000528660045285602452846044528360645260846000fd5b632f8aeb3960e11b6000528660045260246000fd5b5050604052505060006060525050565b816001600160a01b0316836001600160a01b0316036116a55760405162461bcd60e51b815260206004820152601960248201527f4552433732313a20617070726f766520746f2063616c6c6572000000000000006044820152606401610725565b6001600160a01b03838116600081815260056020908152604080832094871680845294825291829020805460ff191686151590811790915591519182527f17307eab39ab6107e8899845ad3d59bd9653f200f220920489ca2b5937696c31910160405180910390a3505050565b61171d8484846111df565b611729848484846119ff565b610df45760405162461bcd60e51b815260040161072590612426565b6060600061175283611b00565b600101905060008167ffffffffffffffff81111561177257611772611f53565b6040519080825280601f01601f19166020018201604052801561179c576020820181803683370190505b5090508181016020015b600019016f181899199a1a9b1b9c1cb0b131b232b360811b600a86061a8153600a85049450846117a657509392505050565b843b6117f357632f8aeb3960e11b6000528460045260246000fd5b60405160805160a05160c051637921219560e11b6000528760045286602452856044528460645260a0608452600060a45260008060c46000808d5af1806118a3573d1561187e576020601f3d010460208604816003028183111561186557818303600302610200838002858002030401015b5a60208201101561187a573d6000803e3d6000fd5b5050505b63f486bc8760e01b600052896004528860245287604452866064528560845260a46000fd5b5060809290925260a05260c05260405250506000606052505050565b6118cb84848484611bd8565b600181111561193a5760405162461bcd60e51b815260206004820152603560248201527f455243373231456e756d657261626c653a20636f6e7365637574697665207472604482015274185b9cd9995c9cc81b9bdd081cdd5c1c1bdc9d1959605a1b6064820152608401610725565b816001600160a01b0385166119965761199181600880546000838152600960205260408120829055600182018355919091527ff3f7a9fe364faab93b216da50a3214154f22a0a2b415b23a84c8169e8b636ee30155565b6119b9565b836001600160a01b0316856001600160a01b0316146119b9576119b98582611c60565b6001600160a01b0384166119d5576119d081611cfd565b6119f8565b846001600160a01b0316846001600160a01b0316146119f8576119f88482611dac565b5050505050565b60006001600160a01b0384163b15611af557604051630a85bd0160e11b81526001600160a01b0385169063150b7a0290611a43903390899088908890600401612478565b6020604051808303816000875af1925050508015611a7e575060408051601f3d908101601f19168201909252611a7b918101906124b5565b60015b611adb573d808015611aac576040519150601f19603f3d011682016040523d82523d6000602084013e611ab1565b606091505b508051600003611ad35760405162461bcd60e51b815260040161072590612426565b805181602001fd5b6001600160e01b031916630a85bd0160e11b1490506111d7565b506001949350505050565b60008072184f03e93ff9f4daa797ed6e38ed64bf6a1f0160401b8310611b3f5772184f03e93ff9f4daa797ed6e38ed64bf6a1f0160401b830492506040015b6d04ee2d6d415b85acef81000000008310611b6b576d04ee2d6d415b85acef8100000000830492506020015b662386f26fc100008310611b8957662386f26fc10000830492506010015b6305f5e1008310611ba1576305f5e100830492506008015b6127108310611bb557612710830492506004015b60648310611bc7576064830492506002015b600a83106105f25760010192915050565b6001811115610df4576001600160a01b03841615611c1e576001600160a01b03841660009081526003602052604081208054839290611c1890849061230b565b90915550505b6001600160a01b03831615610df4576001600160a01b03831660009081526003602052604081208054839290611c5590849061231e565b909155505050505050565b60006001611c6d84610bcb565b611c77919061230b565b600083815260076020526040902054909150808214611cca576001600160a01b03841660009081526006602090815260408083208584528252808320548484528184208190558352600790915290208190555b5060009182526007602090815260408084208490556001600160a01b039094168352600681528383209183525290812055565b600854600090611d0f9060019061230b565b60008381526009602052604081205460088054939450909284908110611d3757611d376121d1565b906000526020600020015490508060088381548110611d5857611d586121d1565b6000918252602080832090910192909255828152600990915260408082208490558582528120556008805480611d9057611d906124d2565b6001900381819060005260206000200160009055905550505050565b6000611db783610bcb565b6001600160a01b039093166000908152600660209081526040808320868452825280832085905593825260079052919091209190915550565b6001600160e01b0319811681146109b757600080fd5b600060208284031215611e1857600080fd5b8135611e2381611df0565b9392505050565b60005b83811015611e45578181015183820152602001611e2d565b50506000910152565b60008151808452611e66816020860160208601611e2a565b601f01601f19169290920160200192915050565b602081526000611e236020830184611e4e565b600060208284031215611e9f57600080fd5b5035919050565b80356001600160a01b0381168114611ebd57600080fd5b919050565b60008060408385031215611ed557600080fd5b611ede83611ea6565b946020939093013593505050565b80358015158114611ebd57600080fd5b600060208284031215611f0e57600080fd5b611e2382611eec565b600080600060608486031215611f2c57600080fd5b611f3584611ea6565b9250611f4360208501611ea6565b9150604084013590509250925092565b634e487b7160e01b600052604160045260246000fd5b600067ffffffffffffffff80841115611f8457611f84611f53565b604051601f8501601f19908116603f01168101908282118183101715611fac57611fac611f53565b81604052809350858152868686011115611fc557600080fd5b858560208301376000602087830101525050509392505050565b600060208284031215611ff157600080fd5b813567ffffffffffffffff81111561200857600080fd5b8201601f8101841361201957600080fd5b6111d784823560208401611f69565b60006020828403121561203a57600080fd5b611e2382611ea6565b60008060006060848603121561205857600080fd5b61206184611ea6565b95602085013595506040909401359392505050565b604080825283519082018190526000906020906060840190828701845b828110156120af57815184529284019290840190600101612093565b50505092019290925292915050565b600080604083850312156120d157600080fd5b6120da83611ea6565b91506120e860208401611eec565b90509250929050565b6000806000806080858703121561210757600080fd5b61211085611ea6565b935061211e60208601611ea6565b925060408501359150606085013567ffffffffffffffff81111561214157600080fd5b8501601f8101871361215257600080fd5b61216187823560208401611f69565b91505092959194509250565b6000806040838503121561218057600080fd5b61218983611ea6565b91506120e860208401611ea6565b600181811c908216806121ab57607f821691505b6020821081036121cb57634e487b7160e01b600052602260045260246000fd5b50919050565b634e487b7160e01b600052603260045260246000fd5b601f8211156107c657600081815260208120601f850160051c8101602086101561220e5750805b601f850160051c820191505b8181101561222d5782815560010161221a565b505050505050565b815167ffffffffffffffff81111561224f5761224f611f53565b6122638161225d8454612197565b846121e7565b602080601f83116001811461229857600084156122805750858301515b600019600386901b1c1916600185901b17855561222d565b600085815260208120601f198616915b828110156122c7578886015182559484019460019091019084016122a8565b50858210156122e55787850151600019600388901b60f8161c191681555b5050505050600190811b01905550565b634e487b7160e01b600052601160045260246000fd5b818103818111156105f2576105f26122f5565b808201808211156105f2576105f26122f5565b600060018201612343576123436122f5565b5060010190565b600080845461235881612197565b600182811680156123705760018114612385576123b4565b60ff19841687528215158302870194506123b4565b8860005260208060002060005b858110156123ab5781548a820152908401908201612392565b50505082870194505b5050505083516123c8818360208801611e2a565b64173539b7b760d91b9101908152600501949350505050565b60208082526025908201527f4552433732313a207472616e736665722066726f6d20696e636f72726563742060408201526437bbb732b960d91b606082015260800190565b60208082526032908201527f4552433732313a207472616e7366657220746f206e6f6e20455243373231526560408201527131b2b4bb32b91034b6b83632b6b2b73a32b960711b606082015260800190565b6001600160a01b03858116825284166020820152604081018390526080606082018190526000906124ab90830184611e4e565b9695505050505050565b6000602082840312156124c757600080fd5b8151611e2381611df0565b634e487b7160e01b600052603160045260246000fdfea26469706673582212202f8bd3fa0eb6700e69d6001dcf141a172820f63109ea89f71f45b2182e0bcfb264736f6c63430008110033",
  "linkReferences": {},
  "deployedLinkReferences": {}
}